{
  "abi": [
    {
      "inputs": [
        {
          "internalType": "address[]",
          "name": "_owners",
          "type": "address[]"
        },
        {
          "internalType": "uint256",
          "name": "_required",
          "type": "uint256"
        }
      ],
      "stateMutability": "nonpayable",
      "type": "constructor"
    },
    {
      "anonymous": false,
      "inputs": [
        {
          "indexed": true,
          "internalType": "address",
          "name": "owner",
          "type": "address"
        },
        {
          "indexed": true,
          "internalType": "uint256",
          "name": "txId",
          "type": "uint256"
        }
      ],
      "name": "Approve",
      "type": "event"
    },
    {
      "anonymous": false,
      "inputs": [
        {
          "indexed": true,
          "internalType": "address",
          "name": "sender",
          "type": "address"
        },
        {
          "indexed": false,
          "internalType": "uint256",
          "name": "amount",
          "type": "uint256"
        }
      ],
      "name": "Deposit",
      "type": "event"
    },
    {
      "anonymous": false,
      "inputs": [
        {
          "indexed": true,
          "internalType": "uint256",
          "name": "txId",
          "type": "uint256"
        }
      ],
      "name": "Execute",
      "type": "event"
    },
    {
      "anonymous": false,
      "inputs": [
        {
          "indexed": true,
          "internalType": "address",
          "name": "owner",
          "type": "address"
        },
        {
          "indexed": true,
          "internalType": "uint256",
          "name": "txId",
          "type": "uint256"
        }
      ],
      "name": "Revoke",
      "type": "event"
    },
    {
      "anonymous": false,
      "inputs": [
        {
          "indexed": true,
          "internalType": "uint256",
          "name": "txId",
          "type": "uint256"
        }
      ],
      "name": "Submit",
      "type": "event"
    },
    {
      "inputs": [
        {
          "internalType": "uint256",
          "name": "_txId",
          "type": "uint256"
        }
      ],
      "name": "_getApprovalCount",
      "outputs": [
        {
          "internalType": "uint256",
          "name": "count",
          "type": "uint256"
        }
      ],
      "stateMutability": "view",
      "type": "function"
    },
    {
      "inputs": [
        {
          "internalType": "uint256",
          "name": "_txId",
          "type": "uint256"
        }
      ],
      "name": "approve",
      "outputs": [],
      "stateMutability": "nonpayable",
      "type": "function"
    },
    {
      "inputs": [
        {
          "internalType": "uint256",
          "name": "",
          "type": "uint256"
        },
        {
          "internalType": "address",
          "name": "",
          "type": "address"
        }
      ],
      "name": "approved",
      "outputs": [
        {
          "internalType": "bool",
          "name": "",
          "type": "bool"
        }
      ],
      "stateMutability": "view",
      "type": "function"
    },
    {
      "inputs": [
        {
          "internalType": "uint256",
          "name": "_txId",
          "type": "uint256"
        }
      ],
      "name": "checkIfApproved",
      "outputs": [
        {
          "internalType": "bool",
          "name": "",
          "type": "bool"
        }
      ],
      "stateMutability": "view",
      "type": "function"
    },
    {
      "inputs": [
        {
          "internalType": "uint256",
          "name": "_txId",
          "type": "uint256"
        }
      ],
      "name": "execute",
      "outputs": [],
      "stateMutability": "nonpayable",
      "type": "function"
    },
    {
      "inputs": [],
      "name": "getAllTransactions",
      "outputs": [
        {
          "components": [
            {
              "internalType": "address",
              "name": "to",
              "type": "address"
            },
            {
              "internalType": "uint256",
              "name": "value",
              "type": "uint256"
            },
            {
              "internalType": "bool",
              "name": "executed",
              "type": "bool"
            },
            {
              "internalType": "uint256",
              "name": "timeStamp",
              "type": "uint256"
            }
          ],
          "internalType": "struct MultiSigWallet.Transaction[]",
          "name": "",
          "type": "tuple[]"
        }
      ],
      "stateMutability": "view",
      "type": "function"
    },
    {
      "inputs": [],
      "name": "getBalance",
      "outputs": [
        {
          "internalType": "uint256",
          "name": "",
          "type": "uint256"
        }
      ],
      "stateMutability": "view",
      "type": "function"
    },
    {
      "inputs": [],
      "name": "getOwners",
      "outputs": [
        {
          "internalType": "address[]",
          "name": "",
          "type": "address[]"
        }
      ],
      "stateMutability": "view",
      "type": "function"
    },
    {
      "inputs": [],
      "name": "getRequiredApprovals",
      "outputs": [
        {
          "internalType": "uint256",
          "name": "",
          "type": "uint256"
        }
      ],
      "stateMutability": "view",
      "type": "function"
    },
    {
      "inputs": [
        {
          "internalType": "uint256",
          "name": "_txId",
          "type": "uint256"
        }
      ],
      "name": "getTransaction",
      "outputs": [
        {
          "components": [
            {
              "internalType": "address",
              "name": "to",
              "type": "address"
            },
            {
              "internalType": "uint256",
              "name": "value",
              "type": "uint256"
            },
            {
              "internalType": "bool",
              "name": "executed",
              "type": "bool"
            },
            {
              "internalType": "uint256",
              "name": "timeStamp",
              "type": "uint256"
            }
          ],
          "internalType": "struct MultiSigWallet.Transaction",
          "name": "",
          "type": "tuple"
        }
      ],
      "stateMutability": "view",
      "type": "function"
    },
    {
      "inputs": [
        {
          "internalType": "address",
          "name": "",
          "type": "address"
        }
      ],
      "name": "isOwner",
      "outputs": [
        {
          "internalType": "bool",
          "name": "",
          "type": "bool"
        }
      ],
      "stateMutability": "view",
      "type": "function"
    },
    {
      "inputs": [
        {
          "internalType": "uint256",
          "name": "",
          "type": "uint256"
        }
      ],
      "name": "owners",
      "outputs": [
        {
          "internalType": "address",
          "name": "",
          "type": "address"
        }
      ],
      "stateMutability": "view",
      "type": "function"
    },
    {
      "inputs": [],
      "name": "required",
      "outputs": [
        {
          "internalType": "uint256",
          "name": "",
          "type": "uint256"
        }
      ],
      "stateMutability": "view",
      "type": "function"
    },
    {
      "inputs": [
        {
          "internalType": "uint256",
          "name": "_txId",
          "type": "uint256"
        }
      ],
      "name": "revoke",
      "outputs": [],
      "stateMutability": "nonpayable",
      "type": "function"
    },
    {
      "inputs": [
        {
          "internalType": "address",
          "name": "_to",
          "type": "address"
        },
        {
          "internalType": "uint256",
          "name": "_value",
          "type": "uint256"
        }
      ],
      "name": "submit",
      "outputs": [],
      "stateMutability": "nonpayable",
      "type": "function"
    },
    {
      "inputs": [
        {
          "internalType": "uint256",
          "name": "",
          "type": "uint256"
        }
      ],
      "name": "transactions",
      "outputs": [
        {
          "internalType": "address",
          "name": "to",
          "type": "address"
        },
        {
          "internalType": "uint256",
          "name": "value",
          "type": "uint256"
        },
        {
          "internalType": "bool",
          "name": "executed",
          "type": "bool"
        },
        {
          "internalType": "uint256",
          "name": "timeStamp",
          "type": "uint256"
        }
      ],
      "stateMutability": "view",
      "type": "function"
    },
    {
      "stateMutability": "payable",
      "type": "receive"
    }
  ],
  "bytecode": {
    "object": "0x60806040523480156200001157600080fd5b506040516200126938038062001269833981016040819052620000349162000287565b60008251116200007d5760405162461bcd60e51b815260206004820152600f60248201526e13dddb995c9cc814995c5d5a5c9959608a1b60448201526064015b60405180910390fd5b6000811180156200008f575081518111155b620000e75760405162461bcd60e51b815260206004820152602160248201527f496e7661696c64207265717569726564206e756d626572206f66206f776e65726044820152607360f81b606482015260840162000074565b60005b8251811015620002495760008382815181106200010b576200010b62000361565b6020026020010151905060006001600160a01b0316816001600160a01b031603620001695760405162461bcd60e51b815260206004820152600d60248201526c24b73b30b634b21027bbb732b960991b604482015260640162000074565b6001600160a01b03811660009081526001602052604090205460ff1615620001d45760405162461bcd60e51b815260206004820152601360248201527f4f776e6572206973206e6f7420756e6971756500000000000000000000000000604482015260640162000074565b6001600160a01b031660008181526001602081905260408220805460ff191682179055815490810182559080527f290decd9548b62a8d60345a988386fc84ba6bc95484008f6362f93160ef3e5630180546001600160a01b031916909117905580620002408162000377565b915050620000ea565b50600255506200039f565b634e487b7160e01b600052604160045260246000fd5b80516001600160a01b03811681146200028257600080fd5b919050565b600080604083850312156200029b57600080fd5b82516001600160401b0380821115620002b357600080fd5b818501915085601f830112620002c857600080fd5b8151602082821115620002df57620002df62000254565b8160051b604051601f19603f8301168101818110868211171562000307576200030762000254565b6040529283528183019350848101820192898411156200032657600080fd5b948201945b838610156200034f576200033f866200026a565b855294820194938201936200032b565b97909101519698969750505050505050565b634e487b7160e01b600052603260045260246000fd5b6000600182016200039857634e487b7160e01b600052601160045260246000fd5b5060010190565b610eba80620003af6000396000f3fe6080604052600436106100f75760003560e01c80638b1e24ab1161008a578063b759f95411610059578063b759f95414610360578063dc8452cd14610380578063eda8b7cd14610396578063fe0d94c1146103b657600080fd5b80638b1e24ab1461029e5780639ace38c2146102b3578063a0e67e2b14610303578063a599e1531461032557600080fd5b806327506f53116100c657806327506f53146101d45780632f54bf6e146101f657806333ea3dc8146102365780638253951a1461026357600080fd5b8063025e7c271461013857806312065fe014610175578063203dd6661461019257806320c5429b146101b457600080fd5b366101335760405134815233907fe1fffcc4923d04b559f4d29a8bfc6cda04eb5b0d3c460751c2402c5c5cc9109c9060200160405180910390a2005b600080fd5b34801561014457600080fd5b50610158610153366004610c01565b6103d6565b6040516001600160a01b0390911681526020015b60405180910390f35b34801561018157600080fd5b50475b60405190815260200161016c565b34801561019e57600080fd5b506101b26101ad366004610c36565b610400565b005b3480156101c057600080fd5b506101b26101cf366004610c01565b61056e565b3480156101e057600080fd5b506101e96106b0565b60405161016c9190610c60565b34801561020257600080fd5b50610226610211366004610cd7565b60016020526000908152604090205460ff1681565b604051901515815260200161016c565b34801561024257600080fd5b50610256610251366004610c01565b61073f565b60405161016c9190610cf9565b34801561026f57600080fd5b5061022661027e366004610d31565b600460209081526000928352604080842090915290825290205460ff1681565b3480156102aa57600080fd5b50600254610184565b3480156102bf57600080fd5b506102d36102ce366004610c01565b6107cb565b604080516001600160a01b039095168552602085019390935290151591830191909152606082015260800161016c565b34801561030f57600080fd5b50610318610812565b60405161016c9190610d5d565b34801561033157600080fd5b50610226610340366004610c01565b600090815260046020908152604080832033845290915290205460ff1690565b34801561036c57600080fd5b506101b261037b366004610c01565b610874565b34801561038c57600080fd5b5061018460025481565b3480156103a257600080fd5b506101846103b1366004610c01565b6109c1565b3480156103c257600080fd5b506101b26103d1366004610c01565b610a49565b600081815481106103e657600080fd5b6000918252602090912001546001600160a01b0316905081565b3360009081526001602052604090205460ff166104385760405162461bcd60e51b815260040161042f90610d9e565b60405180910390fd5b604080516080810182526001600160a01b038481168252602082018481526000938301848152426060850190815260038054600180820183559782905295517fc2575a0e9e593c00f959f8c92f12db2869c3395a3b0502d05e2516446f71f85b600490970296870180546001600160a01b031916919096161790945591517fc2575a0e9e593c00f959f8c92f12db2869c3395a3b0502d05e2516446f71f85c850155517fc2575a0e9e593c00f959f8c92f12db2869c3395a3b0502d05e2516446f71f85d8401805460ff1916911515919091179055517fc2575a0e9e593c00f959f8c92f12db2869c3395a3b0502d05e2516446f71f85e90920191909155546105419190610dd7565b6040517f08324b3d745b914e3abd4ffbfead91e3b78391a98c173202129215ab933adfbe90600090a25050565b3360009081526001602052604090205460ff1661059d5760405162461bcd60e51b815260040161042f90610d9e565b600354819081106105c05760405162461bcd60e51b815260040161042f90610dea565b81600381815481106105d4576105d4610e15565b600091825260209091206002600490920201015460ff16156106085760405162461bcd60e51b815260040161042f90610e2b565b600083815260046020908152604080832033845290915290205460ff166106635760405162461bcd60e51b815260206004820152600f60248201526e1d1e081b9bdd08185c1c1c9bdd9959608a1b604482015260640161042f565b6000838152600460209081526040808320338085529252808320805460ff191690555185927fec9ab91322523c899ede7830ec9bfc992b5981cdcc27b91162fb23de5791117b91a3505050565b60606003805480602002602001604051908101604052809291908181526020016000905b82821015610736576000848152602090819020604080516080810182526004860290920180546001600160a01b0316835260018082015484860152600282015460ff1615159284019290925260030154606083015290835290920191016106d4565b50505050905090565b6040805160808101825260008082526020820181905291810182905260608101919091526003828154811061077657610776610e15565b600091825260209182902060408051608081018252600490930290910180546001600160a01b03168352600181015493830193909352600283015460ff16151590820152600390910154606082015292915050565b600381815481106107db57600080fd5b600091825260209091206004909102018054600182015460028301546003909301546001600160a01b0390921693509160ff169084565b6060600080548060200260200160405190810160405280929190818152602001828054801561086a57602002820191906000526020600020905b81546001600160a01b0316815260019091019060200180831161084c575b5050505050905090565b3360009081526001602052604090205460ff166108a35760405162461bcd60e51b815260040161042f90610d9e565b600354819081106108c65760405162461bcd60e51b815260040161042f90610dea565b6000828152600460209081526040808320338452909152902054829060ff16156109285760405162461bcd60e51b81526020600482015260136024820152721d1e08185b1c9958591e48185c1c1c9bdd9959606a1b604482015260640161042f565b826003818154811061093c5761093c610e15565b600091825260209091206002600490920201015460ff16156109705760405162461bcd60e51b815260040161042f90610e2b565b6000848152600460209081526040808320338085529252808320805460ff191660011790555186927f90ec57f18fa7b15c6b8d5e4d1deb90796c74b2ff23d4d0cecad0cb42a96b312891a350505050565b6000805b600054811015610a43576004600084815260200190815260200160002060008083815481106109f6576109f6610e15565b60009182526020808320909101546001600160a01b0316835282019290925260400190205460ff1615610a3157610a2e600183610e58565b91505b80610a3b81610e6b565b9150506109c5565b50919050565b60035481908110610a6c5760405162461bcd60e51b815260040161042f90610dea565b8160038181548110610a8057610a80610e15565b600091825260209091206002600490920201015460ff1615610ab45760405162461bcd60e51b815260040161042f90610e2b565b600254610ac0846109c1565b1015610b055760405162461bcd60e51b8152602060048201526014602482015273185c1c1c9bdd985b1cc80f081c995c5d5a5c995960621b604482015260640161042f565b600060038481548110610b1a57610b1a610e15565b60009182526020822060049190910201600281018054600160ff1990911681179091558154908201546040519294506001600160a01b03909116918381818185875af1925050503d8060008114610b8d576040519150601f19603f3d011682016040523d82523d6000602084013e610b92565b606091505b5050905080610bcf5760405162461bcd60e51b81526020600482015260096024820152681d1e0819985a5b195960ba1b604482015260640161042f565b60405185907fddb556f1d2c1ec821e910b019d3685b229db152a0ecd517ca7e24b8bd713928990600090a25050505050565b600060208284031215610c1357600080fd5b5035919050565b80356001600160a01b0381168114610c3157600080fd5b919050565b60008060408385031215610c4957600080fd5b610c5283610c1a565b946020939093013593505050565b6020808252825182820181905260009190848201906040850190845b81811015610ccb57610cb883855180516001600160a01b0316825260208082015190830152604080820151151590830152606090810151910152565b9284019260809290920191600101610c7c565b50909695505050505050565b600060208284031215610ce957600080fd5b610cf282610c1a565b9392505050565b81516001600160a01b031681526020808301519082015260408083015115159082015260608083015190820152608081015b92915050565b60008060408385031215610d4457600080fd5b82359150610d5460208401610c1a565b90509250929050565b6020808252825182820181905260009190848201906040850190845b81811015610ccb5783516001600160a01b031683529284019291840191600101610d79565b6020808252600990820152683737ba1037bbb732b960b91b604082015260600190565b634e487b7160e01b600052601160045260246000fd5b81810381811115610d2b57610d2b610dc1565b6020808252601190820152701d1e08191bd95cc81b9bdd08195e1a5cdd607a1b604082015260600190565b634e487b7160e01b600052603260045260246000fd5b6020808252601390820152721d1e08185b1c9958591e48195e1958dd5d1959606a1b604082015260600190565b80820180821115610d2b57610d2b610dc1565b600060018201610e7d57610e7d610dc1565b506001019056fea2646970667358221220b6fd55df4101dcf0aa7dc2bdc292da18fe81bd1789a61a6845e4ad84c8a5393064736f6c63430008130033",
    "linkReferences": {}
  },
  "methodIdentifiers": {
    "_getApprovalCount(uint256)": "eda8b7cd",
    "approve(uint256)": "b759f954",
    "approved(uint256,address)": "8253951a",
    "checkIfApproved(uint256)": "a599e153",
    "execute(uint256)": "fe0d94c1",
    "getAllTransactions()": "27506f53",
    "getBalance()": "12065fe0",
    "getOwners()": "a0e67e2b",
    "getRequiredApprovals()": "8b1e24ab",
    "getTransaction(uint256)": "33ea3dc8",
    "isOwner(address)": "2f54bf6e",
    "owners(uint256)": "025e7c27",
    "required()": "dc8452cd",
    "revoke(uint256)": "20c5429b",
    "submit(address,uint256)": "203dd666",
    "transactions(uint256)": "9ace38c2"
  },
  "id": 20
}